:100000000F308A000B2F00004E24C9225410C42741
:100010003A102010200043100001C427A0204D1DDD
:10002000201020102010A0122010201020102000DE
:1000300054347510000143272010201D20000C00AF
:1000400054347510000143272010201D2000C320C8
:100050004910C42054105424CF24A023C9204E009A
:10006000C3204910C42054105424CF24A023C920F5
:100070004E00C3204910C42054105424D510201021
:1000800020102010200043273A00C3204910C4202C
:100090005410CE23C12C2110201020102000C3208A
:1000A0004910C420541054244127C7102010201098
:1000B0000001C3204910C4205410C724CF102010C1
:1000C000201020102000C3204910C42054105024B8
:1000D000552A211020102010201000010C00BE26EF
:1000E0004127202449274810C4270001A021C1240A
:1000F0002022412A2027C824452A20224F00A0215F
:10010000C1242022412A20224F10C126000120268E
:10011000C9214810D32AA02141274810C2204F00EE
:100120000C00A0264127202449274810C42700019D
:10013000BE21C1242022412A2027C824452A20226A
:100140004F00A021C1242022412A20224F10C12685
:1001500000012026C9214810D32AA0214127481098
:10016000C2204F000C00A026412720244927481018
:10017000C4270001A021C1242022412A2027C8240D
:10018000452A20224F00BE21C1242022412A2022BC
:100190004F10C12600012026C9214810D32AA021D2
:1001A00041274810C2204F000C00A02641272024E0
:1001B00049274810C4270001A021C1242022412A38
:1001C0002027C824452A20224F00A021C124202214
:1001D000412A20224F10C12600013E26C921481085
:1001E000D32AA02141274810C2204F00CE23D52773
:1001F000CE232027C824452A20224F1D000143106A
:100200000001CE23D527CE2320224F10C1263A004D
:100210002500C3306E342031E137A01820103A0099
:100220005434751000014327201D200043100001A5
:100230002500C3306E342031E137201920103A00F8
:100240005434751000014327201D20004310000185
:100250002500C3306E342031E137A01920103A0058
:100260005434751000014327201D20004310000165
:100270002500593084008313000803194C290630E7
:10028000F800F701F70B4229F80B41297B30F70002
:10029000F70B4829800B3F290800600EF039F70062
:1002A0000F30080577048800000008140330F700B9
:1002B000F70B5829081008000808F700080E0F3936
:1002C000F80008008316081088100811831288109F
:1002D0000F3083160805F0388800831208150000D7
:1002E000081400005C217808E000081000000814E1
:1002F00079297A2900005C217808DF0008100F3086
:100300008316080588008312600EF700F030F705A9
:1003100077085F04F8007808DF00DF1B68295D1CA0
:1003200088105D18881400000811000008105E0E87
:10033000DF000F30DF055F08E0004D215E080F3958
:10034000DF00E0004D2108002830D2000C30D3003F
:100350000130D4000630D5000810881008110F3085
:100360008316080588000810881008110F308312C2
:10037000D90039210130D1005108033C031CC829A0
:100380000330E0004D210530D9003921D10ABC29C4
:100390000230E0004D210530D9003921D10151084A
:1003A000033C031CDF2952305107840083130008EB
:1003B000D600DD015608DE006221D10ACF298A1558
:1003C0000A124F2F94138C11590893000230941B7A
:1003D000F02983161419EA290030111B0130831209
:1003E000F80008001413831691159119F529771850
:1003F0009112771C91161116111AFC2983121308F9
:10040000F80008005A08DB000310DB0C7830DB052D
:100410005B0CF700F70C3F30F70577085B07DC0053
:100420005A080F395C07F80008005808D900DA01AB
:100430005908093C0318212A0A30D9021030DA077A
:10044000242A5908DA07252A182A5A08F800080029
:10045000D101D201D301D401D501D601D701831630
:1004600011141118312AD0308312D900E221D90198
:10047000E2218316911491183B2AD1308312D900BE
:10048000E2210130F700F22178087F39D800DA0044
:1004900002227808D1000130F700F22178087F3974
:1004A000D800DA0002227808D2000130F700F221E9
:1004B00078083F39D800DA0002227808D3000130EA
:1004C000F700F22178087F39D800DA000222780894
:1004D000D4000130F700F22178083F39D800DA0063
:1004E00002227808D5000130F700F22178081F3980
:1004F000D800DA0002227808D600F701F221780845
:10050000D800DA0002227808D700831611151119D5
:10051000872A111411188A2AD0308312D900E221B7
:10052000D901E2215108D80015227808D800D90055
:10053000E2215208D80015227808D800D900E2211B
:100540005308D80015227808D800D900E2215408B1
:10055000D80015227808D800D900E2215508D80023
:1005600015227808D800D900E2215608D8001522B3
:100570007808D800D900E2215708D8001522780859
:10058000D800D900E2219030D900E221831611155C
:100590001119C82A83128A150A12552F5A0BD12A0B
:1005A000D42A4030DB00D52ADB0101305902DB07B9
:1005B0005B088038DC00DD015C08DE006221080099
:1005C0005808073A0319EE2A0B3A0319F32A063A98
:1005D0000319FB2A023A0319012B062B0130D9001B
:1005E000DA00CE220B2BDD010130DE006221023069
:1005F000D90039210B2B0130D9000230DA00CE228C
:100600000B2BDD011030DE0062210B2B0130DD00F1
:100610005808DE00622108000B08D1008B138316F6
:1006200003178C170C140000000083120313D11B56
:100630008B1703170C087F390319602B0313D100A4
:1006400003170D080313D20003170F080313D30079
:100650005108D800E022520803178D0003135308F5
:1006600003178F0003130B08D4008B138316031793
:100670008C170C140000000083120313D41B8B177B
:1006800003170C0D0E0D7F390319602B0313D100D6
:1006900003170D080313D20003170F080313D30029
:1006A0005108D800E022520803178D0003135308A5
:1006B00003178F008D0A03198F0A03130C2B0317DE
:1006C000031308005908F801580203186A2B580848
:1006D000F700762BF7010830DA00D80DF70D59082E
:1006E00077020318F700F80DDA0B6D2B08002030A5
:1006F000531E3030D4005208F700D21F872BF70961
:10070000F70A7708D2002D30D400D31753145208BB
:10071000D8006430D90062237708D20030307807DF
:10072000D5005208D8000A30D9006223303077074C
:10073000D70030307807D6005408F7003030550223
:100740000319A62BD314D31B5315BA2B5408D50069
:100750002030D400303056020319B22B5314D31B6F
:10076000D314BA2B031D5314031DBA2B5508D600FE
:100770002030D5005319C12BD318C42B5318C72BC5
:10078000CA2B5408D800E0225508D800E0225608A9
:10079000D800E0225708D800E0220800D108031949
:1007A000D62BDD010F30DE006221DA2BDD010C30AB
:1007B000DE00622108000130D900DA00CE22380BB9
:1007C000E22BF82B203003178D0000308F0003132D
:1007D0000C234408D2001830D30077232030D800EF
:1007E000E0223A30D800E0222030D800E022012C6C
:1007F000380B012C233003178D0000308F000313BA
:100800000C230130D100CE230830D9000130DA00AA
:10081000CE224108D8000A30D90062237808D100DE
:10082000D2001830D30077234108D8000A30D9000D
:1008300062237708D100D2001830D30077232F30FD
:10084000D800E0224208D8000A30D9006223780894
:10085000D100D2001830D30077234208D8000A30E4
:10086000D90062237708D100D2001830D300772353
:100870002F30D800E0224308D8000A30D900622384
:100880007808D1003230D800E0223030D800E022A1
:100890005108D2001830D30077234308D8000A301B
:1008A000D90062237708D100D2001830D300772313
:1008B0002030D800E0220130D9000230DA00CE2208
:1008C0004008D8000A30D90062237808D100D2004D
:1008D0001830D30077234008D8000A30D9006223AB
:1008E0007708D100D2001830D30077233A30D800EF
:1008F000E0223F08D8000A30D90062237808D100EE
:10090000D2001830D30077233F08D8000A30D9002E
:1009100062237708D100D2001830D30077233A3011
:10092000D800E0223E08D8000A30D90062237808B7
:10093000D100D2001830D30077233E08D8000A3007
:10094000D90062237708D100D2001830D300772372
:100950001530D9000230DA00CE22273003178D007F
:1009600000308F0003130C230530D9000130DA006A
:10097000CE220130D100CE238A150A125D2F01301C
:10098000BC003D08FB3E0318AF2F053EB02F1530CD
:10099000D9000230DA00CE22393003178D00003042
:1009A0008F0003130C238316851483128518152DCD
:1009B0003C0B152D0530D90039218316851483127F
:1009C0008518142D3C0B142DC40A0530D9000130B4
:1009D000DA00CE224408D2001830D300772320302A
:1009E000D800E0223A30D800E0224408073C03183F
:1009F000072D0130C4000630D9000130DA00CE22C4
:100A0000433003178D0000308F0003130C23053093
:100A1000D9000130DA00CE2283168514831285189E
:100A2000142D3C0B142D0C2D2F2D831685158312A0
:100A300085192F2D3C0B2F2D0530D9003921831618
:100A40008515831285192F2D3C0B2F2D83168515A7
:100A5000831285192E2D3C0B2E2D262D302DD32CB7
:100A6000AF2F1530D9000230DA00CE2245300317FF
:100A70008D0000308F0003130C238316851483121E
:100A80008518832D3C0B832D0530D9003921831621
:100A9000851483128518822D3C0B822DC10A4108D2
:100AA0001F3C0318552D0130C1000830D90001301A
:100AB000DA00CE224108D8000A30D9006223780833
:100AC000D100D2001830D30077230930D90001308B
:100AD000DA00CE224108D8000A30D9006223770814
:100AE000D100D2001830D30077230930D90001306B
:100AF000DA00CE228316851483128518822D3C0BD2
:100B0000822D7A2DE02D8316051583120519C62D29
:100B10003C0BC62D0530D9003921831605158312EB
:100B20000519C52D3C0BC52DC10B982D1F30C100DB
:100B30000830D9000130DA00CE224108D8000A304E
:100B4000D90062237808D100D2001830D30077236F
:100B50000930D9000130DA00CE224108D8000A302D
:100B6000D90062237708D100D2001830D300772350
:100B70000930D9000130DA00CE2283160515831220
:100B80000519C52D3C0BC52DBD2DE02D83168515F2
:100B900083128519E02D3C0BE02D0530D900392159
:100BA0008316851583128519E02D3C0BE02D8316E5
:100BB000851583128519DF2D3C0BDF2DD72DE12DF7
:100BC0003D2DAF2F1530D9000230DA00CE224F3044
:100BD00003178D0000308F0003130C238316851438
:100BE00083128518342E3C0B342E0530D900392160
:100BF0008316851483128518332E3C0B332EC20ABC
:100C000042080C3C0318062E0130C2000B30D900FC
:100C10000130DA00CE224208D8000A30D90062231F
:100C20007808D100D2001830D30077230C30D900D7
:100C30000130DA00CE224208D8000A30D9006223FF
:100C40007708D100D2001830D30077230C30D900B8
:100C50000130DA00CE228316851483128518332ED4
:100C60003C0B332E2B2E4E2E8316851583128519A1
:100C70004E2E3C0B4E2E0530D9003921831685159A
:100C8000831285194E2E3C0B4E2E8316851583122A
:100C900085194D2E3C0B4D2E452E4F2EEE2DAF2F90
:100CA0001530D9000230DA00CE22593003178D00FA
:100CB00000308F0003130C238316851483128518CC
:100CC0009E2E3C0B9E2E0530D900392183168514AB
:100CD000831285189D2E3C0B9D2EC00A4008183C9F
:100CE000031CC0010130D9000230DA00CE224008D6
:100CF000D8000A30D90062237808D100D200183019
:100D0000D30077230230D900DA00CE224008D80081
:100D10000A30D90062237708D100D2001830D300FE
:100D200077230230D900DA00CE228316851483128D
:100D300085189D2E3C0B9D2E952EFC2E8316051599
:100D400083120519E22E3C0BE22E0530D900392121
:100D50008316051583120519E12E3C0BE12EC00800
:100D6000031DB52E1830C000B62EC0030130D900C7
:100D70000230DA00CE224008D8000A30D9006223BF
:100D80007808D100D2001830D30077230230D90080
:100D9000DA00CE224008D8000A30D9006223770852
:100DA000D100D2001830D30077230230D900DA0006
:100DB000CE228316051583120519E12E3C0BE12E78
:100DC000D92EFC2E8316851583128519FC2E3C0B1B
:100DD000FC2E0530D900392183168515831285191B
:100DE000FC2E3C0BFC2E8316851583128519FB2ED9
:100DF0003C0BFB2EF32EFD2E5C2EAF2F1530D900B1
:100E00000230DA00CE22633003178D0000308F00ED
:100E100003130C2383168514831285184E2F3C0B65
:100E20004E2F0530D9003921831685148312851879
:100E30004D2F3C0B4D2FBF0A3F083C3C031CBF010C
:100E40000430D9000230DA00CE223F08D8000A3040
:100E5000D90062237808D100D2001830D30077235C
:100E60000530D9000230DA00CE223F08D8000A301F
:100E7000D90062237708D100D2001830D30077233D
:100E80000530D9000230DA00CE2283168514831291
:100E900085184D2F3C0B4D2F452FAE2F8316051572
:100EA00083120519942F3C0B942F0530D90039215A
:100EB0008316051583120519932F3C0B932FBF083A
:100EC000031D652F3C30BF00662FBF030430D900DF
:100ED0000230DA00CE223F08D8000A30D90062235F
:100EE0007808D100D2001830D30077230530D9001C
:100EF0000230DA00CE223F08D8000A30D90062233F
:100F00007708D100D2001830D30077230530D900FC
:100F10000230DA00CE228316051583120519932FAD
:100F20003C0B932F8B2FAE2F8316851583128519BB
:100F3000AE2F3C0BAE2F0530D90039218316851515
:100F400083128519AE2F3C0BAE2F831685158312A5
:100F50008519AD2F3C0BAD2FA52FAF2F0A2F080001
:100F60000A148A140A158207C72C312DE22D502E3F
:100F7000FE2EF801F901F701FA015608031DC32FEF
:100F800055080319DD2F1030D7000310D30DD40DF1
:100F9000F70DFA0D56087A02031DD02F5508770277
:100FA000031CD92F5508F702031CFA035608FA024E
:100FB0000314F80DF90DD70BC52F0800D201520804
:100FC0000A3C031CF62F4630520784008313520854
:100FD0005107D500550803178D0083168C130C1488
:0E0FE00083120C0880000313D20ADF2F0800D2
:101000003C0B0328BC0183168515831285196F28B4
:10101000BC08031D6F280530D9008A1139218A15B3
:1010200083168515831285196E28BC08031D6E284A
:10103000BD0A3D08043C03181E28BD011530D90027
:101040000230DA008A11CE228A15303003178D0063
:1010500000308F008A1103130C238A15BD08031D6D
:1010600039280530D9000130DA008A11CE228A15DC
:1010700065283D0B43280930D9000130DA008A1178
:10108000CE228A1565283D08023C031D4F280C30EE
:10109000D9000130DA008A11CE228A1565283D0870
:1010A000033C031D5A280230D900DA008A11CE22EF
:1010B0008A1565283D08043C031D65280530D900C4
:1010C0000230DA008A11CE228A1583168515831222
:1010D00085196E28BC08031D6E28652855298316BE
:1010E0008514831285189128BC08031D91280530AA
:1010F000D9008A1139218A1583168514831285181F
:101100009028BC08031D90288A11BF248A158316D5
:101110008514831285189028BC08031D9028872801
:1011200055298316051583120519B328BC08031D1C
:10113000B3280530D9008A1139218A15831605157F
:1011400083120519B228BC08031DB2288A11BF24D6
:101150008A158316051583120519B228BC08031DCC
:10116000B228A9285529831685168312851A552970
:10117000BC08031D55290530D9008A1139218A156B
:10118000831685168312851A5529BC08031D552917
:101190004108D1004208D2004308D3004408D400DB
:1011A0004008D5003F08D6003E08D700D7133F308F
:1011B000D505831611141118DB28D0308312D900FD
:1011C0008A11E2218A15D9018A11E2218A1557086C
:1011D000D8008A1115228A157808D800D9008A11FA
:1011E000E2218A155608D8008A1115228A15780836
:1011F000D800D9008A11E2218A155508D8008A1131
:1012000015228A157808D800D9008A11E2218A159A
:101210005408D8008A1115228A157808D800D900F8
:101220008A11E2218A155108D8008A1115228A15DF
:101230007808D800D9008A11E2218A155208D8000E
:101240008A1115228A157808D800D9008A11E2215E
:101250008A155308D8008A1115228A157808D800F3
:10126000D9008A11E2218A159030D9008A11E22131
:101270008A158316111511193B298312D1018A1180
:10128000CE238A151F3003178D0000308F008A117E
:1012900003130C238A15831685168312851A542985
:1012A000BC08031D54294B29562900288A150A1207
:1012B0005F2FB908031D9F296E3003178D00003082
:1012C0008F008A1103130C238A156F3003178D00CA
:1012D00000308F008A1103130C238A150130D900C6
:1012E0000230DA008A11CE228A15763003178D007B
:1012F00000308F008A1103130C238A151530D90092
:101300000130DA008A11CE228A157F3003178D0052
:1013100000308F008A1103130C238A151530D90071
:101320000230DA008A11CE228A15873003178D0029
:1013300000308F008A1103130C238A15712A390B90
:10134000E429903003178D0000308F008A110313B9
:101350000C238A15913003178D0000308F008A11FD
:1013600003130C238A150130D9000230DA008A11E8
:10137000CE228A15983003178D0000308F008A1115
:1013800003130C238A151530D9000130DA008A11B5
:10139000CE228A15A13003178D0000308F008A11EC
:1013A00003130C238A151530D9000230DA008A1194
:1013B000CE228A15A93003178D0000308F008A11C4
:1013C00003130C238A15712A3908023C031D2B2AAA
:1013D000B23003178D0000308F008A1103130C23E5
:1013E0008A15B33003178D0000308F008A11031364
:1013F0000C238A150130D9000230DA008A11CE227E
:101400008A15BA3003178D0000308F008A1103133C
:101410000C238A151530D9000130DA008A11CE224A
:101420008A15C33003178D0000308F008A11031313
:101430000C238A151530D9000230DA008A11CE2229
:101440008A15CB3003178D0000308F008A110313EB
:101450000C238A15712A3908033C031D712AD430E4
:1014600003178D0000308F008A1103130C238A1597
:10147000D53003178D0000308F008A1103130C2321
:101480008A150130D9000230DA008A11CE228A157D
:10149000DC3003178D0000308F008A1103130C23FA
:1014A0008A151530D9000130DA008A11CE228A154A
:1014B000E53003178D0000308F008A1103130C23D1
:1014C0008A151530D9000230DA008A11CE228A1529
:1014D000ED3003178D0000308F008A1103130C23A9
:1014E0008A1508003B08003A03197D2A013A0319BE
:1014F000012C033A0319862D0A2F0C30D8008A11CB
:10150000E0228A15D1018A11DE278A150130D9001F
:10151000DA008A11CE228A15093003178D000130B6
:101520008F008A1103130C238A150130D900023071
:10153000DA008A11CE228A154A0B9F2ABA2A103065
:1015400003178D0001308F008A1103130C238A15B5
:101550004A08D2001830D3008A1177238A153A300E
:10156000D8008A11E0228A152030D8008A11E022A2
:101570008A15C52A4A0BC52A133003178D0001307E
:101580008F008A1103130C238A154B08D8000A30E8
:10159000D9008A1162238A157808D100D200183048
:1015A000D3008A1177238A154B08D8000A30D90056
:1015B0008A1162238A157708D100D2001830D3002F
:1015C0008A1177238A152F30D8008A11E0228A15D4
:1015D0004C08D8000A30D9008A1162238A1578088D
:1015E000D100D2001830D3008A1177238A154C0815
:1015F000D8000A30D9008A1162238A157708D100F1
:10160000D2001830D3008A1177238A152F30D800E2
:101610008A11E0228A154D08D8000A30D9008A11B3
:1016200062238A157808D1003230D8008A11E0226E
:101630008A153030D8008A11E0228A155108D2006C
:101640001830D3008A1177238A154D08D8000A3044
:10165000D9008A1162238A157708D100D200183088
:10166000D3008A1177238A151C30D9000130DA00A3
:101670008A11CE228A154E08D8000A30D9008A1164
:1016800062238A157808D100D2001830D3008A115D
:1016900077238A154E08D8000A30D9008A116223B0
:1016A0008A157708D100D2001830D3008A11772329
:1016B0008A153A30D8008A11E0228A154F08D800DE
:1016C0000A30D9008A1162238A157808D100D20025
:1016D0001830D3008A1177238A154F08D8000A30B2
:1016E000D9008A1162238A157708D100D2001830F8
:1016F000D3008A1177238A153A30D8008A11E02264
:101700008A155008D8000A30D9008A1162238A1538
:101710007808D100D2001830D3008A1177238A15B7
:101720005008D8000A30D9008A1162238A15770838
:10173000D100D2001830D3008A1177238A151530D2
:10174000D9000230DA008A11CE228A154608D2006A
:101750001330D3008A1177238A154708D200183036
:10176000D3008A1177238A15DF30D8008A11E0224E
:101770008A15163003178D0001308F008A1103136C
:101780000C238A151E30D9000230DA008A11CE22CD
:101790008A154808D2001330D3008A1177238A159E
:1017A0004908D2001830D3008A1177238A151830DF
:1017B00003178D0001308F008A1103130C238A1543
:1017C0000230D100FA30D9008A1139218A15D10BA3
:1017D000E22B831685168312851A002C3A0B002CF7
:1017E0000530D9008A1139218A158316851683128E
:1017F000851A002C5921831685168312851EFB2B12
:101800000A2F0C30D8008A11E0228A150B30D10043
:101810008A11DE278A150130D900DA008A11CE221A
:101820008A15193003178D0001308F008A110313B8
:101830000C238A150130D9000230DA008A11CE2239
:101840008A154A0B242C3F2C203003178D000130C1
:101850008F008A1103130C238A154A08D20018300E
:10186000D3008A1177238A153A30D8008A11E022F2
:101870008A152030D8008A11E0228A154A2C4A0B9A
:101880004A2C233003178D0001308F008A11031377
:101890000C238A154B08D8000A30D9008A1162231C
:1018A0008A157808D100D2001830D3008A11772326
:1018B0008A154B08D8000A30D9008A1162238A158C
:1018C0007708D100D2001830D3008A1177238A1507
:1018D0002F30D8008A11E0228A154C08D8000A302F
:1018E000D9008A1162238A157808D100D2001830F5
:1018F000D3008A1177238A154C08D8000A30D90002
:101900008A1162238A157708D100D2001830D300DB
:101910008A1177238A152F30D8008A11E0228A1580
:101920004D08D8000A30D9008A1162238A15780838
:10193000D1003230D8008A11E0228A153030D80028
:101940008A11E0228A155108D2001830D3008A117A
:1019500077238A154D08D8000A30D9008A116223EE
:101960008A157708D100D2001830D3008A11772366
:101970008A151C30D9000130DA008A11CE228A156E
:101980004E08D8000A30D9008A1162238A157808D7
:10199000D100D2001830D3008A1177238A154E085F
:1019A000D8000A30D9008A1162238A157708D1003D
:1019B000D2001830D3008A1177238A153A30D80024
:1019C0008A11E0228A154F08D8000A30D9008A11FE
:1019D00062238A157808D100D2001830D3008A110A
:1019E00077238A154F08D8000A30D9008A1162235C
:1019F0008A157708D100D2001830D3008A117723D6
:101A00008A153A30D8008A11E0228A155008D80089
:101A10000A30D9008A1162238A157808D100D200D1
:101A20001830D3008A1177238A155008D8000A305D
:101A3000D9008A1162238A157708D100D2001830A4
:101A4000D3008A1177238A151530D9000230DA00C5
:101A50008A11CE228A154608D2001330D3008A118B
:101A600077238A154708D2001830D3008A117723CC
:101A70008A15DF30D8008A11E0228A152630031734
:101A80008D0001308F008A1103130C238A151E303C
:101A9000D9000230DA008A11CE228A154808D20015
:101AA0001330D3008A1177238A154908D2001830E1
:101AB000D3008A1177238A15283003178D0001304F
:101AC0008F008A1103130C238A150230D100FA30DB
:101AD000D9008A1139218A15D10B672D83168516F5
:101AE0008312851A852D3A0B852D0530D9008A1170
:101AF00039218A15831685168312851A852D592159
:101B0000831685168312851E802D0A2F0C30D8006F
:101B10008A11E0228A151630D1008A11DE278A1533
:101B20000130D900DA008A11CE228A152930031734
:101B30008D0001308F008A1103130C238A150130A8
:101B4000D9000230DA008A11CE228A154A0BA92D5B
:101B5000C42D303003178D0001308F008A1103131C
:101B60000C238A154A08D2001830D3008A11772333
:101B70008A153A30D8008A11E0228A152030D80020
:101B80008A11E0228A15CF2D4A0BCF2D333003174F
:101B90008D0001308F008A1103130C238A154B0826
:101BA000D8000A30D9008A1162238A157808D1003A
:101BB000D2001830D3008A1177238A154B08D80039
:101BC0000A30D9008A1162238A157708D100D20021
:101BD0001830D3008A1177238A152F30D8008A1144
:101BE000E0228A154C08D8000A30D9008A116223F5
:101BF0008A157808D100D2001830D3008A117723D3
:101C00008A154C08D8000A30D9008A1162238A1537
:101C10007708D100D2001830D3008A1177238A15B3
:101C20002F30D8008A11E0228A154D08D8000A30DA
:101C3000D9008A1162238A157808D1003230D80081
:101C40008A11E0228A153030D8008A11E0228A15E4
:101C50005108D2001830D3008A1177238A154D0815
:101C6000D8000A30D9008A1162238A157708D1007A
:101C7000D2001830D3008A1177238A151C30D9007E
:101C80000130DA008A11CE228A154E08D8000A30B7
:101C9000D9008A1162238A157808D100D200183041
:101CA000D3008A1177238A154E08D8000A30D9004C
:101CB0008A1162238A157708D100D2001830D30028
:101CC0008A1177238A153A30D8008A11E0228A15C2
:101CD0004F08D8000A30D9008A1162238A15780883
:101CE000D100D2001830D3008A1177238A154F080B
:101CF000D8000A30D9008A1162238A157708D100EA
:101D0000D2001830D3008A1177238A153A30D800D0
:101D10008A11E0228A155008D8000A30D9008A11A9
:101D200062238A157808D100D2001830D3008A11B6
:101D300077238A155008D8000A30D9008A11622307
:101D40008A157708D100D2001830D3008A11772382
:101D50008A151530D9000230DA008A11CE228A1590
:101D60004608D2001330D3008A1177238A1547081A
:101D7000D2001830D3008A1177238A15DF30D800BB
:101D80008A11E0228A15363003178D0001308F004A
:101D90008A1103130C238A151E30D9000230DA0091
:101DA0008A11CE228A154808D2001330D3008A1136
:101DB00077238A154908D2001830D3008A11772377
:101DC0008A15383003178D0001308F008A110313F4
:101DD0000C238A150230D100FA30D9008A1139213A
:101DE0008A15D10BEC2E831685168312851A0A2FBD
:101DF0003A0B0A2F0530D9008A1139218A1583162A
:101E000085168312851A0A2F592183168516831287
:101E1000851E052F080003081F398300FF30A0002E
:101E2000A015200883168700831220162008831629
:101E30008700313093002830831294008316941762
:101E400014131C308312AE005030AF00B101B0014A
:101E5000B901BA01BB01BC01BD01BE01BF01C00196
:101E60000130C100C2001830C3000230C400C501F7
:101E700083161F149F141F159F1107309C00831396
:101E8000003088002E308500003086000613831253
:101E9000061383168613831286138A11A4298A15C2
:101EA000831606148A118312282A8A15C830D9008D
:101EB0008A1139218A158A11DB2B8A1500280230F4
:101EC000D1009630D9008A1139218A15D10B612FA2
:101ED0000A168A1100200A128A15BA01831685147F
:101EE000831285188E2FBA08031D8E2F0530D90056
:101EF0008A1139218A1583168514831285188D2F2E
:101F0000B908031D862F0330B900872FB903592163
:101F1000831685148312851C882FCA2F83160515F6
:101F200083120519AE2FBA08031DAE2F0530D90054
:101F30008A1139218A158316051583120519AD2FCB
:101F40003908023C0318A62FB901A72FB90A592155
:101F5000831605158312051DA82FCA2F8316851514
:101F600083128519CA2FBA08031DCA2F0530D9005C
:101F70008A1139218A158316851583128519CA2F6E
:101F80000A168A1100200A128A15831685158312F3
:081F9000851DC52F6D2F6300B4
:102000000130BA003908FC3E03185B2F043E5C2FF8
:102010000C30D8000A12E0220A1683161114111887
:102020000F28D0308312D9000A12E2210A16033099
:10203000D9000A12E2210A168316911491181E285B
:10204000D1308312D9000A12E2210A160130F700BA
:102050000A12F2210A1678087F39D100DA000A1232
:1020600002220A167808B8000130F7000A12F2219D
:102070000A1678083F39D100DA000A1202220A163D
:102080007808B5000130F7000A12F2210A16780824
:102090001F39D100DA000A1202220A167808B600A7
:1020A000F7010A12F2210A167808D100DA000A12A2
:1020B00002220A167808B7008316111511195E2836
:1020C000111411186128D0308312D9000A12E221AC
:1020D0000A16D9010A12E2210A16831691149118E0
:1020E0006F28D1308312D9000A12E2210A1601307A
:1020F000F7000A12F2210A1678087F39D100DA00B7
:102100000A1202220A167808B2000130F7000A12F9
:10211000F2210A1678087F39D100DA000A12022269
:102120000A167808B300F7010A12F2210A16780895
:102130003F39D100DA000A1202220A167808B400E8
:10214000831611151119A22802308312D90001300B
:10215000DA000A12CE220A16380BAF28CF28183020
:1021600003178D0000308F000A1203130C230A1688
:102170003808D2001830D3000A1277230A1620300C
:10218000D8000A12E0220A163A30D8000A12E022D9
:102190000A162030D8000A12E0220A16DA28380B74
:1021A000DA281B3003178D0000308F000A1203134A
:1021B0000C230A160A30D9000130DA000A12CE22A6
:1021C0000A163508D8000A30D9000A1262230A1606
:1021D0007808D100D2001830D3000A1277230A16EB
:1021E0003508D8000A30D9000A1262230A16770887
:1021F000D100D2001830D3000A1277230A162F30EC
:10220000D8000A12E0220A163608D8000A30D9008F
:102210000A1262230A167808D100D2001830D300BF
:102220000A1277230A163608D8000A30D9000A1293
:1022300062230A167708D100D2001830D3000A12A0
:1022400077230A162F30D8000A12E0220A16370820
:10225000D8000A30D9000A1262230A167808D10081
:102260003230D8000A12E0220A163030D8000A12A2
:10227000E0220A165108D2001830D3000A12772340
:102280000A163708D8000A30D9000A1262230A1643
:102290007708D100D2001830D3000A1277230A162B
:1022A0002030D8000A12E0220A160130D90002308C
:1022B000DA000A12CE220A163408D8000A30D900F1
:1022C0000A1262230A167808D100D2001830D3000F
:1022D0000A1277230A163408D8000A30D9000A12E5
:1022E00062230A167708D100D2001830D3000A12F0
:1022F00077230A163A30D8000A12E0220A16330869
:10230000D8000A30D9000A1262230A167808D100D0
:10231000D2001830D3000A1277230A163308D800E7
:102320000A30D9000A1262230A167708D100D200B7
:102330001830D3000A1277230A163A30D8000A124E
:10234000E0220A163208D8000A30D9000A126223A5
:102350000A167808D100D2001830D3000A12772369
:102360000A163208D8000A30D9000A1262230A1667
:102370007708D100D2001830D3000A1277230A164A
:10238000003083168600061083120614831606108A
:10239000831206101230D9000A1239210A16831648
:1023A0000610831206140130831686004230F700AF
:1023B000F70BD8290000061483120618EF29853080
:1023C000F700F70BE129831606148312061CEF2988
:1023D0008530F700F70BEA290130F800EF29D10129
:1023E0005108043C031C3A2AD2015208073C031C42
:1023F000382A831606148312061CF9295330F70075
:10240000F70B002A831606148312061C222A213099
:102410005107F800FA010318FA0A21305107840025
:1024200083130310000D0138D5007808840083134E
:102430007A1883175508800083160614831206182D
:102440001C2A362A21305107F800FA010318FA0A2B
:1024500021305107840083130310000DD500780844
:10246000840083137A18831755088000D20AF5294F
:10247000D10AF029831606108312061423082407B4
:10248000220721072502031D472A0130F800AB016E
:102490002308AA0003102A0DD1002B0DD20003102F
:1024A000D10DD20D0310D10DD20D0310D10DD20DCF
:1024B0000310D10DD20D0310D10DD20D0310D10D8B
:1024C000D20D0310D10DD20D2408D1070318D20A62
:1024D0005108AA005208AB00AD012108AC00F6304B
:1024E000AA07FF30031CAB0703102C0DD1002D0DE4
:1024F000D2000310D10DD20D0310D10DD20D031057
:10250000D10DD20D0310D10DD20D0310D10DD20D6E
:102510000310D10DD20D0310D10DD20D2208D1041C
:102520005108AC005208AD000530AC070318AD0AE5
:102530002B08D4002A08D300D6016430D5000A1233
:10254000B9270A167908D2007808D1007908D40092
:102550007808D300D6010A30D5000A12B9270A1626
:102560007708A6002B08D4002A08D300D6010A3029
:10257000D5000A12B9270A167908D2007808D100C6
:102580007908D4007808D300D6010A30D5000A12A1
:10259000B9270A167708A7002D08D4002C08D30005
:1025A000D6016430D5000A12B9270A167908D2007C
:1025B0007808D1007908D4007808D300D6010A3011
:1025C000D5000A12B9270A167708A8002D08D400EA
:1025D0002C08D300D6010A30D5000A12B9270A16F2
:1025E0007908D2007808D1007908D4007808D3009F
:1025F000D6010A30D5000A12B9270A167708A900B1
:10260000C508031DC72C2B08D4002A08D300D60107
:102610000A30D5000A12B9270A167908D2007808BC
:10262000D100D208031D2D2B51082E02031C2D2B87
:102630002D08D4002C08D300D6010A30D5000A1288
:10264000B9270A167908D2007808D100D208031DEC
:102650002D2B51082F020318C72CD101D20152088B
:102660000A3C031C5E2B16305207D4000B30520775
:10267000D500550803178D0083168C130C14831294
:102680000C080313D5000B08F7008B13540803172D
:102690008D000313550803178C0083168C130C153B
:1026A00055308D00AA308D008C148C18552B0C11D0
:1026B0007708831203138B04D20A2F2BD3015308FC
:1026C0000A3C031C8B2B0B305307D4005308031711
:1026D0008D0083168C130C1483120C080313D50081
:1026E0000B08F7008B13540803178D0003135508CC
:1026F00003178C0083168C130C1555308D00AA30EF
:102700008D008C148C18822B0C1177088312031304
:102710008B04D30A5F2B0B08F7008B1351080317A8
:102720008D000313260803178C0083168C130C15D9
:1027300055308D00AA308D008C148C189D2B0C11F7
:102740007708831203138B0401305107D4000B0860
:10275000F7008B13540803178D0003132708031782
:102760008C0083168C130C1555308D00AA308D000B
:102770008C148C18B92B0C117708831203138B045B
:1027800002305107D4000B08F7008B1354080317CD
:102790008D000313280803178C0083168C130C1567
:1027A00055308D00AA308D008C148C18D52B0C114F
:1027B0007708831203138B0403305107D4000B08EE
:1027C000F7008B13540803178D0003132908031710
:1027D0008C0083168C130C1555308D00AA308D009B
:1027E0008C148C18F12B0C117708831203138B04B3
:1027F00004305107D4000B08F7008B13540803175B
:102800008D000313380803178C0083168C130C15E6
:1028100055308D00AA308D008C148C180D2C0C11A5
:102820007708831203138B0405305107D4000B087B
:10283000F7008B13540803178D0003133508031793
:102840008C0083168C130C1555308D00AA308D002A
:102850008C148C18292C0C117708831203138B0409
:1028600006305107D4000B08F7008B1354080317E8
:102870008D000313360803178C0083168C130C1578
:1028800055308D00AA308D008C148C18452C0C11FD
:102890007708831203138B0407305107D4000B0809
:1028A000F7008B13540803178D0003133708031721
:1028B0008C0083168C130C1555308D00AA308D00BA
:1028C0008C148C18612C0C117708831203138B0461
:1028D00008305107D4000B08F7008B135408031776
:1028E0008D000313340803178C0083168C130C150A
:1028F00055308D00AA308D008C148C187D2C0C1155
:102900007708831203138B0409305107D4000B0896
:10291000F7008B13540803178D00031333080317B4
:102920008C0083168C130C1555308D00AA308D0049
:102930008C148C18992C0C117708831203138B04B8
:102940000A305107D4000B08F7008B135408031703
:102950008D000313320803178C0083168C130C159B
:1029600055308D00AA308D008C148C18B52C0C11AC
:102970007708831203138B040130C50083160613F6
:102980008312061783168613831286172D2D2B08A4
:10299000D4002A08D300D6010A30D5000A12B9277C
:1029A0000A167908D2007808D100D208031DFD2C40
:1029B00051082E02031CFD2C2D08D4002C08D30036
:1029C000D6010A30D5000A12B9270A167908D200B2
:1029D0007808D100D208031DFD2C51082F02031CDA
:1029E000FD2C450BFD2CC50183160613831206131F
:1029F00083168613831286132D2D4508D100831666
:102A00008515831285191E2D3A0B1E2D510B1E2D77
:102A10000530D9000A1239210A168316851583124A
:102A200085191D2D510B1D2D0130F800212D831608
:102A30008515831285191D2D172D212D0030F800C5
:102A4000212D780B2D2D0130C5008316061383121E
:102A5000061383168613831286131530D9000130AE
:102A6000DA000A12CE220A16043003178D00003055
:102A70008F000A1203130C230A16DF30D8000A1243
:102A8000E0220A160B3003178D0000308F000A1267
:102A900003130C230A161530D9000230DA000A128B
:102AA000CE220A160D3003178D0000308F000A1257
:102AB00003130C230A161E30D9000130DA000A1263
:102AC000CE220A162608D2001330D3000A1277232A
:102AD0000A162708D2001830D3000A1277230A16E4
:102AE0001E30D9000230DA000A12CE220A16280857
:102AF000D2001330D3000A1277230A162908D20015
:102B00001830D3000A1277230A160230D100FA30A7
:102B1000D9000A1239210A16D10B872D8316851682
:102B20008312851AAB2D3A0BAB2D0530D9000A1252
:102B300039210A16831685168312851AAB2D0A12BF
:102B40008A1559210A168A11831685168312851A49
:102B5000AA2DA42DAC2D0D285B2F0C30D8000A1205
:102B6000E0220A160130D900DA000A12CE220A1633
:102B7000F63003178D0000308F000A1203130C2368
:102B80000A160330D9000230DA000A12CE220A16E1
:102B9000DF30D8000A12E0220A16FF3003178D003A
:102BA00000308F000A1203130C230A160130D900DB
:102BB0000230DA000A12CE220A162E08D20018308D
:102BC000D3000A1277230A168316851483128518F8
:102BD0000B2E3A0B0B2E0530D9000A1239210A169A
:102BE00083168514831285180A2EAE0A0130D90087
:102BF0000230DA000A12CE220A162E08D20018304D
:102C0000D3000A1277230A168316851483128518B7
:102C10000A2E042E312E8316051583120519312E26
:102C20003A0B312E0530D9000A1239210A168316C3
:102C3000051583120519312EAE030130D90002307B
:102C4000DA000A12CE220A162E08D2001830D3005B
:102C50000A1277230A168316051583120519312ED9
:102C60002B2E831685168312851E392E3A0B392E8C
:102C7000B22D0530D9000A1239210A16831685169D
:102C80008312851A502E3A0B502E0A128A1559219A
:102C90000A168A11831685168312851A502E4A2E1B
:102CA0005B2F0C30D8000A12E0220A160130D9003E
:102CB000DA000A12CE220A16013003178D00013005
:102CC0008F000A1203130C230A160330D9000230B6
:102CD000DA000A12CE220A16083003178D000130DE
:102CE0008F000A1203130C230A160130D900023098
:102CF000DA000A12CE220A162F08D2001830D300AA
:102D00000A1277230A168316851483128518AA2EB1
:102D10003A0BAA2E0530D9000A1239210A16831659
:102D2000851483128518A92EAF0A0130D90002300C
:102D3000DA000A12CE220A162F08D2001830D30069
:102D40000A1277230A168316851483128518A92E72
:102D5000A32ED02E8316051583120519D02E3A0BFB
:102D6000D02E0530D9000A1239210A16831605150E
:102D700083120519D02EAF030130D9000230DA00DA
:102D80000A12CE220A162F08D2001830D3000A12D7
:102D900077230A168316051583120519D02ECA2E1D
:102DA000831685168312851ED82E3A0BD82E562EE2
:102DB0000530D9000A1239210A16831685168312A6
:102DC000851AF02E3A0BF02E0A128A1559210A168E
:102DD0008A11831685168312851AEF2EE92E5B2F32
:102DE0005B2F0A128A1572220A168A11831605159C
:102DF00083120519192F3A0B192F0530D9000A1221
:102E000039210A168316051583120519192F3B0857
:102E1000013C03180D2FBB010E2FBB0A0A128A15A5
:102E200072220A168A118316051583120519192FA5
:102E3000132F83168514831285183C2F3A0B3C2FD1
:102E40000530D9000A1239210A1683168514831217
:102E500085183C2FBB08031D302F0230BB00312FDB
:102E6000BB030A128A1572220A168A118316851468
:102E7000831285183C2F362F831685168312851AE8
:102E8000592F3A0B592F0530D9000A1239210A1649
:102E9000831685168312851A592F0A128A1559210D
:102EA0000A168A11831685168312851A582F522FF7
:102EB0005A2FF62E5B2F08000A148A140A1582076F
:082EC0000828AD2D512EF12E62
:02400E00323F3F
:00000001FF
;PIC16F877A
;CRC=D734  CREATED="21-Feb-24 22:44"
